:020000040800F2
:1000000018040020B90A0008810A0008830A0008C1
:10001000850A0008870A0008890A00080000000015
:100020000000000000000000000000008B0A000833
:100030008D0A0008000000008F0A0008910A0008DD
:10004000C90A0008CD0A0008D10A0008D50A00082C
:10005000D90A0008DD0A0008E10A0008E50A0008DC
:10006000E90A0008ED0A0008F10A0008F50A00088C
:10007000F90A0008FD0A0008010B0008050B00083A
:10008000090B00080D0B0008110B0008150B0008E8
:10009000190B00081D0B0008210B0008250B000898
:1000A000290B00082D0B0008310B0008350B000848
:1000B000390B00083D0B0008410B0008450B0008F8
:1000C000490B00084D0B0008510B0008550B0008A8
:1000D000590B00085D0B0008610B0008650B000858
:1000E000690B00086D0B0008710B0008750B000808
:1000F000790B00087D0B0008810B0008850B0008B8
:10010000890B00088D0B0008910B0008950B000867
:10011000990B00089D0B0008A10B0008A50B000817
:10012000A90B0008AD0B0008B10B0008B50B0008C7
:10013000B90B0008BD0B0008C10B0008C50B000877
:10014000C90B0008CD0B0008D10B0008D50B000827
:10015000D90B0008DD0B0008E10B0008E50B0008D7
:10016000E90B0008ED0B0008F10B0008F50B000887
:10017000F90B0008FD0B0008010C0008000000004E
:10018000050C0008090C00082DE9F843040016D0FE
:100190002078DFF8F462C10713D5B06800F00C00D6
:1001A000042807D0B06800F00C0008283DD1706822
:1001B00041023AD53068810303D56068002800F019
:1001C0005E812078B14F810719D5B06810F00C0F0F
:1001D00007D0B06800F00C0008285BD170684102BD
:1001E00058D43068810703D5E068012840F0478182
:1001F0003168206921F0F80141EAC00131602178BD
:10020000080779D56069A249002868D001220A60F0
:1002100000F042F90546706F81076DD400F03CF99B
:10022000401B0228F7D903202CE16068B0F5803F1D
:1002300004D1306840F48030306011E0B0F5A02F78
:10024000306806D140F480203060316841F480315C
:1002500005E020F480303060316821F48021316085
:10026000606858B100F018F9054630688103A8D4D9
:1002700000F012F9401B6528F7D3D4E700F00CF921
:100280000546306881039CD500F006F9401B6528BF
:10029000F7D3C8E7E068A8B10121396000F0FCF8A5
:1002A00005463068810705D400F0F6F8401B0228A7
:1002B000F7D9B8E73068216920F0F80040EAC100BA
:1002C00030609CE7386000F0E7F805463168880741
:1002D00095D500F0E1F8401B0228F7D9A3E70860A4
:1002E00000F0DAF80546706F810705D500F0D4F804
:1002F000401B0228F7D996E7207841075FD5306C7C
:100300000025C1000AD400950125316C41F08051CF
:100310003164306C00F0805000900098DFF87481F8
:10032000D8F80000C10513D4D8F8000040F480705C
:10033000C8F8000000F0B0F88146D8F80000C10508
:1003400006D400F0A9F8A0EB09000228F5D96AE765
:10035000A068012805D00528306F06D140F00400C0
:100360003067306F40F0010005E040084000306722
:10037000306F20F00400306741F28938A06860B126
:1003800000F08AF88146306F810713D400F084F8BA
:10039000A0EB09004045F6D345E700F07DF8814623
:1003A000306F810706D500F077F8A0EB09004045D3
:1003B000F6D338E71DB1306C20F080503064A0696E
:1003C00000285ED0B16801F00C0108293AD002285B
:1003D0002AD10020386600F05FF8054630688101B8
:1003E00005D500F059F8401B0228F7D91BE7E06952
:1003F000216A626A0843A16A490840EA8210491EDC
:1004000040EA0140E16A40EA01607060012038661C
:1004100000F042F804463068810132D400F03CF824
:10042000001B0228F7D9FEE60020386600F034F8F9
:1004300004463068810124D500F02EF8001B022804
:10044000F7D9F0E601281AD07068E26900F480015B
:10045000914202BF00F03F01226A91420FD147F65C
:10046000C071626A0140914202BF00F44031A26A49
:10047000914202BF00F07060E16A884201D0012021
:1004800000E00020BDE8F28300380240000047424F
:10049000800E47420070004001484068704700BF2E
:1004A000000000202DE9F04104000F4654D0404EDA
:1004B000306800F00F00B84202D200F073F84BD160
:1004C00020683C4D810712D5400703D5A96841F447
:1004D000E051A9602078010703D5A86840F4604086
:1004E000A860A968A06821F0F0010143A960217803
:1004F000C80729D56068012802D129688A0305E068
:10050000022818BF032803D129688A0103D423E0F5
:1005100029688A0720D5A968890840EA8100A8606F
:10052000FFF7BAFF8046A868616800F00C00B0EBE6
:10053000810F09D0FFF7B0FFA0EB080041F289312D
:100540008842F0D303202BE0306800F00F00874290
:1005500004D200F027F801D0012021E020784107E3
:1005600005D5AA68E06822F4E0520243AA60217827
:10057000080706D5A968206921F4604141EAC00155
:10058000A96000F01FF8AA680B490C4BC2F30312D4
:10059000895CC84018600A48006800F043F80020F1
:1005A000BDE8F0813770316801F00F01B942704742
:1005B000003C024000380240AC0900080C0000205A
:1005C0000800002030B5144C606800F00C000428CE
:1005D00002D0082802D01DE0104830BD22682068F3
:1005E0000023410202F03F0204D525680B49C5F300
:1005F000881003E020680A49C0F38810A1FB0001BD
:1006000000F030F82168C1F30141491C4900B0FBFA
:10061000F1F030BD024830BD0438024000127A00CB
:100620000024F40038B50D4D0D4B2A7804464FF4E4
:100630007A711868B1FBF2F2B0FBF2F000F0D6F874
:1006400050B9102C08D2002221464FF0FF3000F0A4
:10065000B0F8AC60002032BD012032BD00000020A7
:100660000C000020D3BBD9B1B2F5803F5BD2022A87
:100670001ED98C46B1FBF2F102FB11C31B0443EA05
:100680001043B3FBF2FC02FB1C3380B240EA03438D
:10069000B3FBF2F002FB103240EA0C40002370473B
:1006A000022A05D98446B0FBF2F002FB10C2704763
:1006B0004AB105D100F0010249085FEA30007047F5
:1006C00000220023704700F0ADB80B0002000021AB
:1006D00000207047F7D3002200237047904271EB4F
:1006E000030CF2D370B5B1FA81F4B3FA83F52C1B85
:1006F000A340C4F1200532FA05F63343A2405FF06F
:100700000046E64002E05B085FEA3202841A71EBC1
:10071000030524BF204629467641F4D302000B008E
:100720003000002170BD70B5B1FA81F4B2FA82F5E3
:10073000C4F120046419B4F12006DAD3B2405FF0AA
:100740000044F440002502E052085FEA3303C61A71
:1007500071EB020E24BF3046714664416D41F3D304
:1007600002000B002000290070BD30B40EE00268CA
:10077000436802440830DC0744BFA9F10104E318D0
:1007800052F8045B43F8045B091FF9D150F8041BCD
:100790000029ECD130BC70470901020002D41D4889
:1007A000815470471C4B02F00F021A4402F8041CDB
:1007B000704770B5194B1C68C4F302230124C3F1C0
:1007C0000705052D2EBF0F2504FA05F56D1E1E1D0C
:1007D000072E34BF0023DB1E2940994004FA03F39F
:1007E000BDE870405B1E1A401143D5E710B5401EAE
:1007F000B0F1807F01D3012010BD094C60600F2152
:100800004FF0FF30FFF7C8FF0021A16007202060F4
:10081000002010BD00E400E018ED00E00CED00E069
:1008200010E000E07047000043480169026841F4AD
:10083000003142F00102016102604048016841F06C
:100840002001016041F080010160816841F03001C8
:10085000816041F0C0018160016A41F4E0610162A0
:1008600041F4E04101620021354841604FF40051FC
:10087000416041604268016841F4D07142F00C026D
:1008800001604260704780B500F00BF8FFF7CCFFC5
:100890002C482D4900230A784260036042680A70A0
:1008A000F9E780B592B0302106A800F053F8142182
:1008B00001A800F04FF8002000904FF4A023234837
:1008C000016841F0805101600021006800F0805013
:1008D000009000981E480091026842F48042026035
:1008E0000122006800F48040009006A8009906925A
:1008F00002214FF480020C910D9208214FF4A8724E
:100900000E910F9202210722079310911192FFF787
:100910003BFC02210291002203920F204FF4A051D0
:10092000019004914FF480520592052101A8FFF730
:10093000B9FD13B000BD0000303802400000024095
:1009400008440040004400401000002040380240AD
:1009500000700040002200F001B8000000B500BFA8
:10096000130096469446103928BFA0E80C50FAD8D8
:100970005FEA417C28BF0CC048BF40F8042BC90780
:1009800028BF20F8022B48BF00F8012B00BD000053
:100990000448054A016841F4700101604FF00060AD
:1009A0001060704788ED00E008ED00E000000000F6
:1009B00000000000010203040607080910B50749FA
:1009C00079441831064C7C44163404E00A68081D4A
:1009D000114488470146A142F8D110BD2C00000007
:1009E0003C0000004EF68851CEF20001086840F449
:1009F00070000860BFF34F8FBFF36F8F4FF0007030
:100A0000E1EE100A7047000063FDFFFF14000000D4
:100A100094000000000000200000000000F00DF82D
:100A2000002801D0FFF7CAFFAFF300800020AFF32A
:100A30000080FFF728FF00F002F80120704700F067
:100A400001B800000746384600F002F8FBE7000056
:100A500080B5AFF30080024A11001820ABBEFBE75F
:100A6000260002000548014603B4684680F3098861
:100A7000AFF30080FFF7B6FFFFF7D0FFA5EDF5FE5F
:100A80007047FEE7FEE7FEE7FEE7704770477047F6
:100A900000F000B80248416802788A184260704746
:100AA0000000002001000000000000001000000015
:100AB0000024F4000000000001488047014800477E
:100AC00091090008650A0008FFF7FEBFFFF7FEBFA7
:100AD000FFF7FEBFFFF7FEBFFFF7FEBFFFF7FEBF4A
:100AE000FFF7FEBFFFF7FEBFFFF7FEBFFFF7FEBF3A
:100AF000FFF7FEBFFFF7FEBFFFF7FEBFFFF7FEBF2A
:100B0000FFF7FEBFFFF7FEBFFFF7FEBFFFF7FEBF19
:100B1000FFF7FEBFFFF7FEBFFFF7FEBFFFF7FEBF09
:100B2000FFF7FEBFFFF7FEBFFFF7FEBFFFF7FEBFF9
:100B3000FFF7FEBFFFF7FEBFFFF7FEBFFFF7FEBFE9
:100B4000FFF7FEBFFFF7FEBFFFF7FEBFFFF7FEBFD9
:100B5000FFF7FEBFFFF7FEBFFFF7FEBFFFF7FEBFC9
:100B6000FFF7FEBFFFF7FEBFFFF7FEBFFFF7FEBFB9
:100B7000FFF7FEBFFFF7FEBFFFF7FEBFFFF7FEBFA9
:100B8000FFF7FEBFFFF7FEBFFFF7FEBFFFF7FEBF99
:100B9000FFF7FEBFFFF7FEBFFFF7FEBFFFF7FEBF89
:100BA000FFF7FEBFFFF7FEBFFFF7FEBFFFF7FEBF79
:100BB000FFF7FEBFFFF7FEBFFFF7FEBFFFF7FEBF69
:100BC000FFF7FEBFFFF7FEBFFFF7FEBFFFF7FEBF59
:100BD000FFF7FEBFFFF7FEBFFFF7FEBFFFF7FEBF49
:100BE000FFF7FEBFFFF7FEBFFFF7FEBFFFF7FEBF39
:100BF000FFF7FEBFFFF7FEBFFFF7FEBFFFF7FEBF29
:0C0C0000FFF7FEBFFFF7FEBFFFF7FEBFCF
:0400000508000A6580
:00000001FF
